{
  "contractName": "InsuranceManager",
  "abi": [
    {
      "inputs": [
        {
          "internalType": "address",
          "name": "onboardingAddr",
          "type": "address"
        },
        {
          "internalType": "address",
          "name": "claimManagerAddr",
          "type": "address"
        },
        {
          "internalType": "address",
          "name": "premiumCollectorAddr",
          "type": "address"
        }
      ],
      "stateMutability": "nonpayable",
      "type": "constructor"
    },
    {
      "anonymous": false,
      "inputs": [
        {
          "indexed": false,
          "internalType": "address",
          "name": "userAddress",
          "type": "address"
        },
        {
          "indexed": false,
          "internalType": "uint256",
          "name": "amountClaimed",
          "type": "uint256"
        },
        {
          "indexed": false,
          "internalType": "uint256",
          "name": "amountApproved",
          "type": "uint256"
        },
        {
          "indexed": false,
          "internalType": "bool",
          "name": "isApproved",
          "type": "bool"
        },
        {
          "indexed": false,
          "internalType": "string",
          "name": "comment",
          "type": "string"
        }
      ],
      "name": "ClaimRequest",
      "type": "event"
    },
    {
      "anonymous": false,
      "inputs": [
        {
          "indexed": false,
          "internalType": "address",
          "name": "userAddress",
          "type": "address"
        },
        {
          "indexed": false,
          "internalType": "string",
          "name": "policyName",
          "type": "string"
        },
        {
          "indexed": false,
          "internalType": "uint256",
          "name": "amountInsured",
          "type": "uint256"
        },
        {
          "indexed": false,
          "internalType": "uint256",
          "name": "amountDueEveryMonth",
          "type": "uint256"
        }
      ],
      "name": "UserPolicy",
      "type": "event"
    },
    {
      "inputs": [
        {
          "internalType": "address",
          "name": "userAddress",
          "type": "address"
        },
        {
          "internalType": "uint256",
          "name": "amountInsured",
          "type": "uint256"
        }
      ],
      "name": "onboardUser",
      "outputs": [
        {
          "components": [
            {
              "internalType": "string",
              "name": "name",
              "type": "string"
            },
            {
              "internalType": "uint256",
              "name": "amountInsured",
              "type": "uint256"
            },
            {
              "internalType": "uint256",
              "name": "amountDueEveryMonth",
              "type": "uint256"
            }
          ],
          "internalType": "struct Onboarding.Policy",
          "name": "policy",
          "type": "tuple"
        }
      ],
      "stateMutability": "nonpayable",
      "type": "function"
    },
    {
      "inputs": [
        {
          "internalType": "address",
          "name": "userAddress",
          "type": "address"
        }
      ],
      "name": "getUserPolicy",
      "outputs": [
        {
          "components": [
            {
              "internalType": "string",
              "name": "name",
              "type": "string"
            },
            {
              "internalType": "uint256",
              "name": "amountInsured",
              "type": "uint256"
            },
            {
              "internalType": "uint256",
              "name": "amountDueEveryMonth",
              "type": "uint256"
            }
          ],
          "internalType": "struct Onboarding.Policy",
          "name": "policy",
          "type": "tuple"
        }
      ],
      "stateMutability": "view",
      "type": "function",
      "constant": true
    },
    {
      "inputs": [
        {
          "internalType": "address",
          "name": "userAddress",
          "type": "address"
        },
        {
          "internalType": "uint256",
          "name": "amount",
          "type": "uint256"
        }
      ],
      "name": "payPremium",
      "outputs": [],
      "stateMutability": "nonpayable",
      "type": "function"
    },
    {
      "inputs": [
        {
          "internalType": "address",
          "name": "userAddress",
          "type": "address"
        },
        {
          "internalType": "uint256",
          "name": "amountClaimed",
          "type": "uint256"
        }
      ],
      "name": "requestClaim",
      "outputs": [],
      "stateMutability": "nonpayable",
      "type": "function"
    },
    {
      "inputs": [
        {
          "internalType": "address",
          "name": "userAddress",
          "type": "address"
        }
      ],
      "name": "approveClaimRequest",
      "outputs": [],
      "stateMutability": "nonpayable",
      "type": "function"
    },
    {
      "inputs": [
        {
          "internalType": "address",
          "name": "userAddress",
          "type": "address"
        },
        {
          "internalType": "string",
          "name": "reason",
          "type": "string"
        }
      ],
      "name": "declineClaimRequest",
      "outputs": [],
      "stateMutability": "nonpayable",
      "type": "function"
    },
    {
      "inputs": [
        {
          "internalType": "address",
          "name": "userAddress",
          "type": "address"
        }
      ],
      "name": "getClaimStatus",
      "outputs": [
        {
          "components": [
            {
              "internalType": "address",
              "name": "userAddress",
              "type": "address"
            },
            {
              "internalType": "uint256",
              "name": "amountClaimed",
              "type": "uint256"
            },
            {
              "internalType": "uint256",
              "name": "amountApproved",
              "type": "uint256"
            },
            {
              "internalType": "bool",
              "name": "isApproved",
              "type": "bool"
            },
            {
              "internalType": "string",
              "name": "comment",
              "type": "string"
            }
          ],
          "internalType": "struct ClaimManager.ClaimRequest",
          "name": "claimRequest",
          "type": "tuple"
        }
      ],
      "stateMutability": "view",
      "type": "function",
      "constant": true
    }
  ],
  "bytecode": "0x60806040523480156200001157600080fd5b50604051620010313803806200103183398181016040528101906200003791906200016c565b826000806101000a81548173ffffffffffffffffffffffffffffffffffffffff021916908373ffffffffffffffffffffffffffffffffffffffff16021790555081600160006101000a81548173ffffffffffffffffffffffffffffffffffffffff021916908373ffffffffffffffffffffffffffffffffffffffff16021790555080600260006101000a81548173ffffffffffffffffffffffffffffffffffffffff021916908373ffffffffffffffffffffffffffffffffffffffff160217905550505050620001c8565b600080fd5b600073ffffffffffffffffffffffffffffffffffffffff82169050919050565b6000620001348262000107565b9050919050565b620001468162000127565b81146200015257600080fd5b50565b60008151905062000166816200013b565b92915050565b60008060006060848603121562000188576200018762000102565b5b6000620001988682870162000155565b9350506020620001ab8682870162000155565b9250506040620001be8682870162000155565b9150509250925092565b610e5980620001d86000396000f3fe608060405234801561001057600080fd5b506004361061007d5760003560e01c8063c9760f711161005b578063c9760f71146100ea578063da36f6671461011a578063e315c78f14610136578063f6406246146101525761007d565b806301e51e9714610082578063761d9e681461009e578063bc2704bf146100ce575b600080fd5b61009c600480360381019061009791906106ec565b610182565b005b6100b860048036038101906100b3919061072c565b610215565b6040516100c59190610848565b60405180910390f35b6100e860048036038101906100e391906106ec565b6102c3565b005b61010460048036038101906100ff919061072c565b610356565b604051610111919061090a565b60405180910390f35b610134600480360381019061012f919061072c565b610406565b005b610150600480360381019061014b9190610a61565b610496565b005b61016c600480360381019061016791906106ec565b610529565b6040516101799190610848565b60405180910390f35b600160009054906101000a900473ffffffffffffffffffffffffffffffffffffffff1673ffffffffffffffffffffffffffffffffffffffff166301e51e9783836040518363ffffffff1660e01b81526004016101df929190610adb565b600060405180830381600087803b1580156101f957600080fd5b505af115801561020d573d6000803e3d6000fd5b505050505050565b61021d6105dc565b60008054906101000a900473ffffffffffffffffffffffffffffffffffffffff1673ffffffffffffffffffffffffffffffffffffffff166316846699836040518263ffffffff1660e01b81526004016102769190610b04565b600060405180830381865afa158015610293573d6000803e3d6000fd5b505050506040513d6000823e3d601f19601f820116820180604052508101906102bc9190610c2e565b9050919050565b600260009054906101000a900473ffffffffffffffffffffffffffffffffffffffff1673ffffffffffffffffffffffffffffffffffffffff1663c407687683836040518363ffffffff1660e01b8152600401610320929190610adb565b600060405180830381600087803b15801561033a57600080fd5b505af115801561034e573d6000803e3d6000fd5b505050505050565b61035e6105fd565b600160009054906101000a900473ffffffffffffffffffffffffffffffffffffffff1673ffffffffffffffffffffffffffffffffffffffff16634cd3723a836040518263ffffffff1660e01b81526004016103b99190610b04565b600060405180830381865afa1580156103d6573d6000803e3d6000fd5b505050506040513d6000823e3d601f19601f820116820180604052508101906103ff9190610d60565b9050919050565b600160009054906101000a900473ffffffffffffffffffffffffffffffffffffffff1673ffffffffffffffffffffffffffffffffffffffff1663da36f667826040518263ffffffff1660e01b81526004016104619190610b04565b600060405180830381600087803b15801561047b57600080fd5b505af115801561048f573d6000803e3d6000fd5b5050505050565b600160009054906101000a900473ffffffffffffffffffffffffffffffffffffffff1673ffffffffffffffffffffffffffffffffffffffff1663e315c78f83836040518363ffffffff1660e01b81526004016104f3929190610df3565b600060405180830381600087803b15801561050d57600080fd5b505af1158015610521573d6000803e3d6000fd5b505050505050565b6105316105dc565b60008054906101000a900473ffffffffffffffffffffffffffffffffffffffff1673ffffffffffffffffffffffffffffffffffffffff1663f640624684846040518363ffffffff1660e01b815260040161058c929190610adb565b6000604051808303816000875af11580156105ab573d6000803e3d6000fd5b505050506040513d6000823e3d601f19601f820116820180604052508101906105d49190610c2e565b905092915050565b60405180606001604052806060815260200160008152602001600081525090565b6040518060a00160405280600073ffffffffffffffffffffffffffffffffffffffff1681526020016000815260200160008152602001600015158152602001606081525090565b6000604051905090565b600080fd5b600080fd5b600073ffffffffffffffffffffffffffffffffffffffff82169050919050565b600061068382610658565b9050919050565b61069381610678565b811461069e57600080fd5b50565b6000813590506106b08161068a565b92915050565b6000819050919050565b6106c9816106b6565b81146106d457600080fd5b50565b6000813590506106e6816106c0565b92915050565b600080604083850312156107035761070261064e565b5b6000610711858286016106a1565b9250506020610722858286016106d7565b9150509250929050565b6000602082840312156107425761074161064e565b5b6000610750848285016106a1565b91505092915050565b600081519050919050565b600082825260208201905092915050565b60005b83811015610793578082015181840152602081019050610778565b60008484015250505050565b6000601f19601f8301169050919050565b60006107bb82610759565b6107c58185610764565b93506107d5818560208601610775565b6107de8161079f565b840191505092915050565b6107f2816106b6565b82525050565b6000606083016000830151848203600086015261081582826107b0565b915050602083015161082a60208601826107e9565b50604083015161083d60408601826107e9565b508091505092915050565b6000602082019050818103600083015261086281846107f8565b905092915050565b61087381610678565b82525050565b60008115159050919050565b61088e81610879565b82525050565b600060a0830160008301516108ac600086018261086a565b5060208301516108bf60208601826107e9565b5060408301516108d260408601826107e9565b5060608301516108e56060860182610885565b50608083015184820360808601526108fd82826107b0565b9150508091505092915050565b600060208201905081810360008301526109248184610894565b905092915050565b600080fd5b600080fd5b7f4e487b7100000000000000000000000000000000000000000000000000000000600052604160045260246000fd5b61096e8261079f565b810181811067ffffffffffffffff8211171561098d5761098c610936565b5b80604052505050565b60006109a0610644565b90506109ac8282610965565b919050565b600067ffffffffffffffff8211156109cc576109cb610936565b5b6109d58261079f565b9050602081019050919050565b82818337600083830152505050565b6000610a046109ff846109b1565b610996565b905082815260208101848484011115610a2057610a1f610931565b5b610a2b8482856109e2565b509392505050565b600082601f830112610a4857610a4761092c565b5b8135610a588482602086016109f1565b91505092915050565b60008060408385031215610a7857610a7761064e565b5b6000610a86858286016106a1565b925050602083013567ffffffffffffffff811115610aa757610aa6610653565b5b610ab385828601610a33565b9150509250929050565b610ac681610678565b82525050565b610ad5816106b6565b82525050565b6000604082019050610af06000830185610abd565b610afd6020830184610acc565b9392505050565b6000602082019050610b196000830184610abd565b92915050565b600080fd5b600080fd5b6000610b3c610b37846109b1565b610996565b905082815260208101848484011115610b5857610b57610931565b5b610b63848285610775565b509392505050565b600082601f830112610b8057610b7f61092c565b5b8151610b90848260208601610b29565b91505092915050565b600081519050610ba8816106c0565b92915050565b600060608284031215610bc457610bc3610b1f565b5b610bce6060610996565b9050600082015167ffffffffffffffff811115610bee57610bed610b24565b5b610bfa84828501610b6b565b6000830152506020610c0e84828501610b99565b6020830152506040610c2284828501610b99565b60408301525092915050565b600060208284031215610c4457610c4361064e565b5b600082015167ffffffffffffffff811115610c6257610c61610653565b5b610c6e84828501610bae565b91505092915050565b600081519050610c868161068a565b92915050565b610c9581610879565b8114610ca057600080fd5b50565b600081519050610cb281610c8c565b92915050565b600060a08284031215610cce57610ccd610b1f565b5b610cd860a0610996565b90506000610ce884828501610c77565b6000830152506020610cfc84828501610b99565b6020830152506040610d1084828501610b99565b6040830152506060610d2484828501610ca3565b606083015250608082015167ffffffffffffffff811115610d4857610d47610b24565b5b610d5484828501610b6b565b60808301525092915050565b600060208284031215610d7657610d7561064e565b5b600082015167ffffffffffffffff811115610d9457610d93610653565b5b610da084828501610cb8565b91505092915050565b600082825260208201905092915050565b6000610dc582610759565b610dcf8185610da9565b9350610ddf818560208601610775565b610de88161079f565b840191505092915050565b6000604082019050610e086000830185610abd565b8181036020830152610e1a8184610dba565b9050939250505056fea2646970667358221220e4e2fcc54650b0711ce37141e45ceae85c6ed5d718aa97bb58bbf7df0088482364736f6c63430008110033",
  "immutableReferences": {},
  "source": "// SPDX-License-Identifier: UNLICENSED\n\nimport \"./Onboarding.sol\";\nimport \"./ClaimManager.sol\";\nimport \"./PremiumCollector.sol\";\n\npragma solidity >=0.7.0 <0.9.0;\n\ncontract InsuranceManager {\n    Onboarding onboarding;\n    ClaimManager claimManager;\n    PremiumCollector premiumCollector;\n\n    constructor (address onboardingAddr, address claimManagerAddr, address premiumCollectorAddr) {\n        onboarding = Onboarding(onboardingAddr);\n        claimManager = ClaimManager(claimManagerAddr);\n        premiumCollector = PremiumCollector(premiumCollectorAddr);\n    }\n\n    event UserPolicy (\n        address userAddress,\n        string policyName,\n        uint amountInsured,\n        uint amountDueEveryMonth\n    );\n\n    event ClaimRequest (\n        address userAddress,\n        uint amountClaimed,\n        uint amountApproved,\n        bool isApproved,\n        string comment\n    );\n\n    function onboardUser(address userAddress, uint amountInsured) external returns (Onboarding.Policy memory policy) {\n         policy = onboarding.onboardUser(userAddress, amountInsured);\n    }\n\n    function getUserPolicy(address userAddress) external view returns (Onboarding.Policy memory policy)  {\n        policy = onboarding.gerUserPolicy(userAddress);\n    }\n\n    function payPremium(address userAddress, uint amount) external {\n        premiumCollector.pay(userAddress, amount);\n    }\n\n    function requestClaim(address userAddress, uint amountClaimed) external {\n        claimManager.requestClaim(userAddress, amountClaimed);\n    }\n\n    function approveClaimRequest(address userAddress) external {\n        claimManager.approveClaimRequest(userAddress);\n    }\n\n    function declineClaimRequest(address userAddress, string memory reason) external {\n        claimManager.declineClaimRequest(userAddress, reason);\n    }\n\n    function getClaimStatus(address userAddress) external view returns (ClaimManager.ClaimRequest memory claimRequest) {\n        claimRequest = claimManager.getClaim(userAddress);\n    }\n}",
  "sourcePath": "/Users/rahulbhatt/Documents/Assignements/Blockchain/project/eth-insurance-app/dApp/contracts/InsuranceManager.sol",
  "compiler": {
    "name": "solc",
    "version": "0.8.17+commit.8df45f5f.Emscripten.clang"
  },
  "schemaVersion": "3.4.10",
  "updatedAt": "2022-12-13T08:53:31.516Z",
  "networkType": "ethereum",
  "devdoc": {
    "kind": "dev",
    "methods": {},
    "version": 1
  },
  "userdoc": {
    "kind": "user",
    "methods": {},
    "version": 1
  }
}