{
  "contractName": "ClaimManager",
  "abi": [
    {
      "inputs": [
        {
          "internalType": "address",
          "name": "userAddress",
          "type": "address"
        },
        {
          "internalType": "uint256",
          "name": "amountClaimed",
          "type": "uint256"
        }
      ],
      "name": "requestClaim",
      "outputs": [],
      "stateMutability": "nonpayable",
      "type": "function"
    },
    {
      "inputs": [
        {
          "internalType": "address",
          "name": "userAddres",
          "type": "address"
        }
      ],
      "name": "approveClaimRequest",
      "outputs": [],
      "stateMutability": "nonpayable",
      "type": "function"
    },
    {
      "inputs": [
        {
          "internalType": "address",
          "name": "userAddress",
          "type": "address"
        },
        {
          "internalType": "string",
          "name": "reason",
          "type": "string"
        }
      ],
      "name": "declineClaimRequest",
      "outputs": [],
      "stateMutability": "nonpayable",
      "type": "function"
    },
    {
      "inputs": [
        {
          "internalType": "address",
          "name": "userAddress",
          "type": "address"
        }
      ],
      "name": "getClaim",
      "outputs": [
        {
          "components": [
            {
              "internalType": "address",
              "name": "userAddress",
              "type": "address"
            },
            {
              "internalType": "uint256",
              "name": "amountClaimed",
              "type": "uint256"
            },
            {
              "internalType": "uint256",
              "name": "amountApproved",
              "type": "uint256"
            },
            {
              "internalType": "bool",
              "name": "isApproved",
              "type": "bool"
            },
            {
              "internalType": "string",
              "name": "comment",
              "type": "string"
            }
          ],
          "internalType": "struct ClaimManager.ClaimRequest",
          "name": "claimRequest",
          "type": "tuple"
        }
      ],
      "stateMutability": "view",
      "type": "function",
      "constant": true
    }
  ],
  "bytecode": "0x608060405234801561001057600080fd5b506110c9806100206000396000f3fe608060405234801561001057600080fd5b506004361061004c5760003560e01c806301e51e97146100515780634cd3723a1461006d578063da36f6671461009d578063e315c78f146100b9575b600080fd5b61006b60048036038101906100669190610985565b6100d5565b005b610087600480360381019061008291906109c5565b610221565b6040516100949190610b31565b60405180910390f35b6100b760048036038101906100b291906109c5565b610390565b005b6100d360048036038101906100ce9190610c88565b610640565b005b6040518060a001604052808373ffffffffffffffffffffffffffffffffffffffff168152602001828152602001600081526020016000151581526020016040518060400160405280600c81526020017f556e6465722052657669657700000000000000000000000000000000000000008152508152506000808473ffffffffffffffffffffffffffffffffffffffff1673ffffffffffffffffffffffffffffffffffffffff16815260200190815260200160002060008201518160000160006101000a81548173ffffffffffffffffffffffffffffffffffffffff021916908373ffffffffffffffffffffffffffffffffffffffff160217905550602082015181600101556040820151816002015560608201518160030160006101000a81548160ff02191690831515021790555060808201518160040190816102199190610ef0565b509050505050565b610229610896565b6000808373ffffffffffffffffffffffffffffffffffffffff1673ffffffffffffffffffffffffffffffffffffffff1681526020019081526020016000206040518060a00160405290816000820160009054906101000a900473ffffffffffffffffffffffffffffffffffffffff1673ffffffffffffffffffffffffffffffffffffffff1673ffffffffffffffffffffffffffffffffffffffff16815260200160018201548152602001600282015481526020016003820160009054906101000a900460ff1615151515815260200160048201805461030790610d13565b80601f016020809104026020016040519081016040528092919081815260200182805461033390610d13565b80156103805780601f1061035557610100808354040283529160200191610380565b820191906000526020600020905b81548152906001019060200180831161036357829003601f168201915b5050505050815250509050919050565b60008060008373ffffffffffffffffffffffffffffffffffffffff1673ffffffffffffffffffffffffffffffffffffffff1681526020019081526020016000206040518060a00160405290816000820160009054906101000a900473ffffffffffffffffffffffffffffffffffffffff1673ffffffffffffffffffffffffffffffffffffffff1673ffffffffffffffffffffffffffffffffffffffff16815260200160018201548152602001600282015481526020016003820160009054906101000a900460ff1615151515815260200160048201805461047090610d13565b80601f016020809104026020016040519081016040528092919081815260200182805461049c90610d13565b80156104e95780601f106104be576101008083540402835291602001916104e9565b820191906000526020600020905b8154815290600101906020018083116104cc57829003601f168201915b50505050508152505090506001816060019015159081151581525050600a600882602001516105189190610ff1565b6105229190611062565b8160400181815250506040518060400160405280601681526020017f436c61696d207265717565737420417070726f766564000000000000000000008152508160800181905250806000808473ffffffffffffffffffffffffffffffffffffffff1673ffffffffffffffffffffffffffffffffffffffff16815260200190815260200160002060008201518160000160006101000a81548173ffffffffffffffffffffffffffffffffffffffff021916908373ffffffffffffffffffffffffffffffffffffffff160217905550602082015181600101556040820151816002015560608201518160030160006101000a81548160ff02191690831515021790555060808201518160040190816106389190610ef0565b509050505050565b60008060008473ffffffffffffffffffffffffffffffffffffffff1673ffffffffffffffffffffffffffffffffffffffff1681526020019081526020016000206040518060a00160405290816000820160009054906101000a900473ffffffffffffffffffffffffffffffffffffffff1673ffffffffffffffffffffffffffffffffffffffff1673ffffffffffffffffffffffffffffffffffffffff16815260200160018201548152602001600282015481526020016003820160009054906101000a900460ff1615151515815260200160048201805461072090610d13565b80601f016020809104026020016040519081016040528092919081815260200182805461074c90610d13565b80156107995780601f1061076e57610100808354040283529160200191610799565b820191906000526020600020905b81548152906001019060200180831161077c57829003601f168201915b50505050508152505090506000816060019015159081151581525050818160800181905250806000808573ffffffffffffffffffffffffffffffffffffffff1673ffffffffffffffffffffffffffffffffffffffff16815260200190815260200160002060008201518160000160006101000a81548173ffffffffffffffffffffffffffffffffffffffff021916908373ffffffffffffffffffffffffffffffffffffffff160217905550602082015181600101556040820151816002015560608201518160030160006101000a81548160ff021916908315150217905550608082015181600401908161088d9190610ef0565b50905050505050565b6040518060a00160405280600073ffffffffffffffffffffffffffffffffffffffff1681526020016000815260200160008152602001600015158152602001606081525090565b6000604051905090565b600080fd5b600080fd5b600073ffffffffffffffffffffffffffffffffffffffff82169050919050565b600061091c826108f1565b9050919050565b61092c81610911565b811461093757600080fd5b50565b60008135905061094981610923565b92915050565b6000819050919050565b6109628161094f565b811461096d57600080fd5b50565b60008135905061097f81610959565b92915050565b6000806040838503121561099c5761099b6108e7565b5b60006109aa8582860161093a565b92505060206109bb85828601610970565b9150509250929050565b6000602082840312156109db576109da6108e7565b5b60006109e98482850161093a565b91505092915050565b6109fb81610911565b82525050565b610a0a8161094f565b82525050565b60008115159050919050565b610a2581610a10565b82525050565b600081519050919050565b600082825260208201905092915050565b60005b83811015610a65578082015181840152602081019050610a4a565b60008484015250505050565b6000601f19601f8301169050919050565b6000610a8d82610a2b565b610a978185610a36565b9350610aa7818560208601610a47565b610ab081610a71565b840191505092915050565b600060a083016000830151610ad360008601826109f2565b506020830151610ae66020860182610a01565b506040830151610af96040860182610a01565b506060830151610b0c6060860182610a1c565b5060808301518482036080860152610b248282610a82565b9150508091505092915050565b60006020820190508181036000830152610b4b8184610abb565b905092915050565b600080fd5b600080fd5b7f4e487b7100000000000000000000000000000000000000000000000000000000600052604160045260246000fd5b610b9582610a71565b810181811067ffffffffffffffff82111715610bb457610bb3610b5d565b5b80604052505050565b6000610bc76108dd565b9050610bd38282610b8c565b919050565b600067ffffffffffffffff821115610bf357610bf2610b5d565b5b610bfc82610a71565b9050602081019050919050565b82818337600083830152505050565b6000610c2b610c2684610bd8565b610bbd565b905082815260208101848484011115610c4757610c46610b58565b5b610c52848285610c09565b509392505050565b600082601f830112610c6f57610c6e610b53565b5b8135610c7f848260208601610c18565b91505092915050565b60008060408385031215610c9f57610c9e6108e7565b5b6000610cad8582860161093a565b925050602083013567ffffffffffffffff811115610cce57610ccd6108ec565b5b610cda85828601610c5a565b9150509250929050565b7f4e487b7100000000000000000000000000000000000000000000000000000000600052602260045260246000fd5b60006002820490506001821680610d2b57607f821691505b602082108103610d3e57610d3d610ce4565b5b50919050565b60008190508160005260206000209050919050565b60006020601f8301049050919050565b600082821b905092915050565b600060088302610da67fffffffffffffffffffffffffffffffffffffffffffffffffffffffffffffffff82610d69565b610db08683610d69565b95508019841693508086168417925050509392505050565b6000819050919050565b6000610ded610de8610de38461094f565b610dc8565b61094f565b9050919050565b6000819050919050565b610e0783610dd2565b610e1b610e1382610df4565b848454610d76565b825550505050565b600090565b610e30610e23565b610e3b818484610dfe565b505050565b5b81811015610e5f57610e54600082610e28565b600181019050610e41565b5050565b601f821115610ea457610e7581610d44565b610e7e84610d59565b81016020851015610e8d578190505b610ea1610e9985610d59565b830182610e40565b50505b505050565b600082821c905092915050565b6000610ec760001984600802610ea9565b1980831691505092915050565b6000610ee08383610eb6565b9150826002028217905092915050565b610ef982610a2b565b67ffffffffffffffff811115610f1257610f11610b5d565b5b610f1c8254610d13565b610f27828285610e63565b600060209050601f831160018114610f5a5760008415610f48578287015190505b610f528582610ed4565b865550610fba565b601f198416610f6886610d44565b60005b82811015610f9057848901518255600182019150602085019450602081019050610f6b565b86831015610fad5784890151610fa9601f891682610eb6565b8355505b6001600288020188555050505b505050505050565b7f4e487b7100000000000000000000000000000000000000000000000000000000600052601160045260246000fd5b6000610ffc8261094f565b91506110078361094f565b92508282026110158161094f565b9150828204841483151761102c5761102b610fc2565b5b5092915050565b7f4e487b7100000000000000000000000000000000000000000000000000000000600052601260045260246000fd5b600061106d8261094f565b91506110788361094f565b92508261108857611087611033565b5b82820490509291505056fea26469706673582212202ee79822f0cb34363caf947f7c1ed7a5039958fe5940a0b6a2a4ec283edaab3564736f6c63430008110033",
  "immutableReferences": {},
  "source": "// SPDX-License-Identifier: UNLICENSED\r\n\r\npragma solidity >=0.7.0 <0.9.0;\r\n\r\ncontract ClaimManager {\r\n    \r\n    mapping(address => ClaimRequest) claims;\r\n\r\n    struct ClaimRequest {\r\n        address userAddress;\r\n        uint amountClaimed;\r\n        uint amountApproved;\r\n        bool isApproved;\r\n        string comment;\r\n    }\r\n    \r\n    function requestClaim(address userAddress, uint amountClaimed) public {\r\n        //check if the user owns a policy\r\n        claims[userAddress] = ClaimRequest(userAddress, amountClaimed, 0, false, \"Under Review\");\r\n    }\r\n\r\n    function approveClaimRequest(address userAddres) public {\r\n        ClaimRequest memory claimRequest = claims[userAddres];\r\n\r\n        claimRequest.isApproved = true;\r\n        claimRequest.amountApproved = (claimRequest.amountClaimed * 8) / 10;\r\n        claimRequest.comment = \"Claim request Approved\";\r\n        \r\n        claims[userAddres] = claimRequest;\r\n    }\r\n\r\n    function declineClaimRequest(address userAddress, string memory reason) public {\r\n        ClaimRequest memory claimRequest = claims[userAddress];\r\n\r\n        claimRequest.isApproved = false;\r\n        claimRequest.comment = reason;\r\n        \r\n        claims[userAddress] = claimRequest;\r\n    }\r\n\r\n    function getClaim(address userAddress) public view returns (ClaimRequest memory claimRequest){\r\n        claimRequest = claims[userAddress];\r\n    }\r\n\r\n}",
  "sourcePath": "C:\\Users\\anshu\\IdeaProjects\\eth-insurance-app\\dApp\\contracts\\ClaimManager.sol",
  "compiler": {
    "name": "solc",
    "version": "0.8.17+commit.8df45f5f.Emscripten.clang"
  },
  "schemaVersion": "3.4.11",
  "updatedAt": "2022-12-14T04:19:24.166Z",
  "networkType": "ethereum",
  "devdoc": {
    "kind": "dev",
    "methods": {},
    "version": 1
  },
  "userdoc": {
    "kind": "user",
    "methods": {},
    "version": 1
  }
}