{
  "contractName": "ClaimManager",
  "abi": [
    {
      "inputs": [
        {
          "internalType": "address",
          "name": "userAddress",
          "type": "address"
        },
        {
          "internalType": "uint256",
          "name": "amountClaimed",
          "type": "uint256"
        }
      ],
      "name": "requestClaim",
      "outputs": [],
      "stateMutability": "nonpayable",
      "type": "function"
    },
    {
      "inputs": [
        {
          "internalType": "address",
          "name": "userAddres",
          "type": "address"
        }
      ],
      "name": "approveClaimRequest",
      "outputs": [],
      "stateMutability": "nonpayable",
      "type": "function"
    },
    {
      "inputs": [
        {
          "internalType": "address",
          "name": "userAddress",
          "type": "address"
        },
        {
          "internalType": "string",
          "name": "reason",
          "type": "string"
        }
      ],
      "name": "declineClaimRequest",
      "outputs": [],
      "stateMutability": "nonpayable",
      "type": "function"
    }
  ],
  "bytecode": "0x608060405234801561001057600080fd5b50610d93806100206000396000f3fe608060405234801561001057600080fd5b50600436106100415760003560e01c806301e51e9714610046578063da36f66714610062578063e315c78f1461007e575b600080fd5b610060600480360381019061005b9190610794565b61009a565b005b61007c600480360381019061007791906107d4565b6101e6565b005b61009860048036038101906100939190610947565b610496565b005b6040518060a001604052808373ffffffffffffffffffffffffffffffffffffffff168152602001828152602001600081526020016000151581526020016040518060400160405280600c81526020017f556e6465722052657669657700000000000000000000000000000000000000008152508152506000808473ffffffffffffffffffffffffffffffffffffffff1673ffffffffffffffffffffffffffffffffffffffff16815260200190815260200160002060008201518160000160006101000a81548173ffffffffffffffffffffffffffffffffffffffff021916908373ffffffffffffffffffffffffffffffffffffffff160217905550602082015181600101556040820151816002015560608201518160030160006101000a81548160ff02191690831515021790555060808201518160040190816101de9190610bba565b509050505050565b60008060008373ffffffffffffffffffffffffffffffffffffffff1673ffffffffffffffffffffffffffffffffffffffff1681526020019081526020016000206040518060a00160405290816000820160009054906101000a900473ffffffffffffffffffffffffffffffffffffffff1673ffffffffffffffffffffffffffffffffffffffff1673ffffffffffffffffffffffffffffffffffffffff16815260200160018201548152602001600282015481526020016003820160009054906101000a900460ff161515151581526020016004820180546102c6906109dd565b80601f01602080910402602001604051908101604052809291908181526020018280546102f2906109dd565b801561033f5780601f106103145761010080835404028352916020019161033f565b820191906000526020600020905b81548152906001019060200180831161032257829003601f168201915b50505050508152505090506001816060019015159081151581525050600a6008826020015161036e9190610cbb565b6103789190610d2c565b8160400181815250506040518060400160405280601681526020017f436c61696d207265717565737420417070726f766564000000000000000000008152508160800181905250806000808473ffffffffffffffffffffffffffffffffffffffff1673ffffffffffffffffffffffffffffffffffffffff16815260200190815260200160002060008201518160000160006101000a81548173ffffffffffffffffffffffffffffffffffffffff021916908373ffffffffffffffffffffffffffffffffffffffff160217905550602082015181600101556040820151816002015560608201518160030160006101000a81548160ff021916908315150217905550608082015181600401908161048e9190610bba565b509050505050565b60008060008473ffffffffffffffffffffffffffffffffffffffff1673ffffffffffffffffffffffffffffffffffffffff1681526020019081526020016000206040518060a00160405290816000820160009054906101000a900473ffffffffffffffffffffffffffffffffffffffff1673ffffffffffffffffffffffffffffffffffffffff1673ffffffffffffffffffffffffffffffffffffffff16815260200160018201548152602001600282015481526020016003820160009054906101000a900460ff16151515158152602001600482018054610576906109dd565b80601f01602080910402602001604051908101604052809291908181526020018280546105a2906109dd565b80156105ef5780601f106105c4576101008083540402835291602001916105ef565b820191906000526020600020905b8154815290600101906020018083116105d257829003601f168201915b50505050508152505090506000816060019015159081151581525050818160800181905250806000808573ffffffffffffffffffffffffffffffffffffffff1673ffffffffffffffffffffffffffffffffffffffff16815260200190815260200160002060008201518160000160006101000a81548173ffffffffffffffffffffffffffffffffffffffff021916908373ffffffffffffffffffffffffffffffffffffffff160217905550602082015181600101556040820151816002015560608201518160030160006101000a81548160ff02191690831515021790555060808201518160040190816106e39190610bba565b50905050505050565b6000604051905090565b600080fd5b600080fd5b600073ffffffffffffffffffffffffffffffffffffffff82169050919050565b600061072b82610700565b9050919050565b61073b81610720565b811461074657600080fd5b50565b60008135905061075881610732565b92915050565b6000819050919050565b6107718161075e565b811461077c57600080fd5b50565b60008135905061078e81610768565b92915050565b600080604083850312156107ab576107aa6106f6565b5b60006107b985828601610749565b92505060206107ca8582860161077f565b9150509250929050565b6000602082840312156107ea576107e96106f6565b5b60006107f884828501610749565b91505092915050565b600080fd5b600080fd5b6000601f19601f8301169050919050565b7f4e487b7100000000000000000000000000000000000000000000000000000000600052604160045260246000fd5b6108548261080b565b810181811067ffffffffffffffff821117156108735761087261081c565b5b80604052505050565b60006108866106ec565b9050610892828261084b565b919050565b600067ffffffffffffffff8211156108b2576108b161081c565b5b6108bb8261080b565b9050602081019050919050565b82818337600083830152505050565b60006108ea6108e584610897565b61087c565b90508281526020810184848401111561090657610905610806565b5b6109118482856108c8565b509392505050565b600082601f83011261092e5761092d610801565b5b813561093e8482602086016108d7565b91505092915050565b6000806040838503121561095e5761095d6106f6565b5b600061096c85828601610749565b925050602083013567ffffffffffffffff81111561098d5761098c6106fb565b5b61099985828601610919565b9150509250929050565b600081519050919050565b7f4e487b7100000000000000000000000000000000000000000000000000000000600052602260045260246000fd5b600060028204905060018216806109f557607f821691505b602082108103610a0857610a076109ae565b5b50919050565b60008190508160005260206000209050919050565b60006020601f8301049050919050565b600082821b905092915050565b600060088302610a707fffffffffffffffffffffffffffffffffffffffffffffffffffffffffffffffff82610a33565b610a7a8683610a33565b95508019841693508086168417925050509392505050565b6000819050919050565b6000610ab7610ab2610aad8461075e565b610a92565b61075e565b9050919050565b6000819050919050565b610ad183610a9c565b610ae5610add82610abe565b848454610a40565b825550505050565b600090565b610afa610aed565b610b05818484610ac8565b505050565b5b81811015610b2957610b1e600082610af2565b600181019050610b0b565b5050565b601f821115610b6e57610b3f81610a0e565b610b4884610a23565b81016020851015610b57578190505b610b6b610b6385610a23565b830182610b0a565b50505b505050565b600082821c905092915050565b6000610b9160001984600802610b73565b1980831691505092915050565b6000610baa8383610b80565b9150826002028217905092915050565b610bc3826109a3565b67ffffffffffffffff811115610bdc57610bdb61081c565b5b610be682546109dd565b610bf1828285610b2d565b600060209050601f831160018114610c245760008415610c12578287015190505b610c1c8582610b9e565b865550610c84565b601f198416610c3286610a0e565b60005b82811015610c5a57848901518255600182019150602085019450602081019050610c35565b86831015610c775784890151610c73601f891682610b80565b8355505b6001600288020188555050505b505050505050565b7f4e487b7100000000000000000000000000000000000000000000000000000000600052601160045260246000fd5b6000610cc68261075e565b9150610cd18361075e565b9250828202610cdf8161075e565b91508282048414831517610cf657610cf5610c8c565b5b5092915050565b7f4e487b7100000000000000000000000000000000000000000000000000000000600052601260045260246000fd5b6000610d378261075e565b9150610d428361075e565b925082610d5257610d51610cfd565b5b82820490509291505056fea2646970667358221220d1cfd0a5c3265cdef89e8dce5545b1a75e8a6712a1be316e763265409b4e63ee64736f6c63430008110033",
  "immutableReferences": {},
  "source": "// SPDX-License-Identifier: UNLICENSED\n\npragma solidity >=0.7.0 <0.9.0;\n\ncontract ClaimManager {\n    \n    mapping(address => ClaimRequest) claims;\n\n    struct ClaimRequest {\n        address userAddress;\n        uint amountClaimed;\n        uint amountApproved;\n        bool isApproved;\n        string comment;\n    }\n    \n    function requestClaim(address userAddress, uint amountClaimed) public {\n        //check if the user owns a policy\n        claims[userAddress] = ClaimRequest(userAddress, amountClaimed, 0, false, \"Under Review\");\n    }\n\n    function approveClaimRequest(address userAddres) public {\n        ClaimRequest memory claimRequest = claims[userAddres];\n\n        claimRequest.isApproved = true;\n        claimRequest.amountApproved = (claimRequest.amountClaimed * 8) / 10;\n        claimRequest.comment = \"Claim request Approved\";\n        \n        claims[userAddres] = claimRequest;\n    }\n\n    function declineClaimRequest(address userAddress, string memory reason) public {\n        ClaimRequest memory claimRequest = claims[userAddress];\n\n        claimRequest.isApproved = false;\n        claimRequest.comment = reason;\n        \n        claims[userAddress] = claimRequest;\n    }\n\n}",
  "sourcePath": "/Users/rahulbhatt/Documents/Assignements/Blockchain/project/eth-insurance-app/dApp/contracts/ClaimManager.sol",
  "compiler": {
    "name": "solc",
    "version": "0.8.17+commit.8df45f5f.Emscripten.clang"
  },
  "schemaVersion": "3.4.10",
  "updatedAt": "2022-12-01T04:01:32.755Z",
  "devdoc": {
    "kind": "dev",
    "methods": {},
    "version": 1
  },
  "userdoc": {
    "kind": "user",
    "methods": {},
    "version": 1
  }
}