{
  "contractName": "CustomToken",
  "abi": [
    {
      "inputs": [
        {
          "internalType": "string",
          "name": "symbol",
          "type": "string"
        },
        {
          "internalType": "uint256",
          "name": "initialSupply",
          "type": "uint256"
        }
      ],
      "stateMutability": "nonpayable",
      "type": "constructor"
    },
    {
      "inputs": [
        {
          "internalType": "address",
          "name": "receiver",
          "type": "address"
        },
        {
          "internalType": "uint256",
          "name": "amount",
          "type": "uint256"
        }
      ],
      "name": "transfer",
      "outputs": [
        {
          "internalType": "bool",
          "name": "",
          "type": "bool"
        }
      ],
      "stateMutability": "nonpayable",
      "type": "function"
    },
    {
      "inputs": [
        {
          "internalType": "address",
          "name": "account",
          "type": "address"
        }
      ],
      "name": "balanceOf",
      "outputs": [
        {
          "internalType": "uint256",
          "name": "",
          "type": "uint256"
        }
      ],
      "stateMutability": "view",
      "type": "function",
      "constant": true
    },
    {
      "inputs": [
        {
          "internalType": "address",
          "name": "from",
          "type": "address"
        },
        {
          "internalType": "address",
          "name": "to",
          "type": "address"
        },
        {
          "internalType": "uint256",
          "name": "amount",
          "type": "uint256"
        }
      ],
      "name": "transferFrom",
      "outputs": [
        {
          "internalType": "bool",
          "name": "",
          "type": "bool"
        }
      ],
      "stateMutability": "nonpayable",
      "type": "function"
    }
  ],
  "bytecode": "0x6080604052600080553480156200001557600080fd5b5060405162000dab38038062000dab83398181016040528101906200003b919062000270565b81600190816200004c919062000517565b5080600081905550600054600260003373ffffffffffffffffffffffffffffffffffffffff1673ffffffffffffffffffffffffffffffffffffffff168152602001908152602001600020819055505050620005fe565b6000604051905090565b600080fd5b600080fd5b600080fd5b600080fd5b6000601f19601f8301169050919050565b7f4e487b7100000000000000000000000000000000000000000000000000000000600052604160045260246000fd5b6200010b82620000c0565b810181811067ffffffffffffffff821117156200012d576200012c620000d1565b5b80604052505050565b600062000142620000a2565b905062000150828262000100565b919050565b600067ffffffffffffffff821115620001735762000172620000d1565b5b6200017e82620000c0565b9050602081019050919050565b60005b83811015620001ab5780820151818401526020810190506200018e565b60008484015250505050565b6000620001ce620001c88462000155565b62000136565b905082815260208101848484011115620001ed57620001ec620000bb565b5b620001fa8482856200018b565b509392505050565b600082601f8301126200021a5762000219620000b6565b5b81516200022c848260208601620001b7565b91505092915050565b6000819050919050565b6200024a8162000235565b81146200025657600080fd5b50565b6000815190506200026a816200023f565b92915050565b600080604083850312156200028a5762000289620000ac565b5b600083015167ffffffffffffffff811115620002ab57620002aa620000b1565b5b620002b98582860162000202565b9250506020620002cc8582860162000259565b9150509250929050565b600081519050919050565b7f4e487b7100000000000000000000000000000000000000000000000000000000600052602260045260246000fd5b600060028204905060018216806200032957607f821691505b6020821081036200033f576200033e620002e1565b5b50919050565b60008190508160005260206000209050919050565b60006020601f8301049050919050565b600082821b905092915050565b600060088302620003a97fffffffffffffffffffffffffffffffffffffffffffffffffffffffffffffffff826200036a565b620003b586836200036a565b95508019841693508086168417925050509392505050565b6000819050919050565b6000620003f8620003f2620003ec8462000235565b620003cd565b62000235565b9050919050565b6000819050919050565b6200041483620003d7565b6200042c6200042382620003ff565b84845462000377565b825550505050565b600090565b6200044362000434565b6200045081848462000409565b505050565b5b8181101562000478576200046c60008262000439565b60018101905062000456565b5050565b601f821115620004c757620004918162000345565b6200049c846200035a565b81016020851015620004ac578190505b620004c4620004bb856200035a565b83018262000455565b50505b505050565b600082821c905092915050565b6000620004ec60001984600802620004cc565b1980831691505092915050565b6000620005078383620004d9565b9150826002028217905092915050565b6200052282620002d6565b67ffffffffffffffff8111156200053e576200053d620000d1565b5b6200054a825462000310565b620005578282856200047c565b600060209050601f8311600181146200058f57600084156200057a578287015190505b620005868582620004f9565b865550620005f6565b601f1984166200059f8662000345565b60005b82811015620005c957848901518255600182019150602085019450602081019050620005a2565b86831015620005e95784890151620005e5601f891682620004d9565b8355505b6001600288020188555050505b505050505050565b61079d806200060e6000396000f3fe608060405234801561001057600080fd5b50600436106100415760003560e01c806323b872dd1461004657806370a0823114610076578063a9059cbb146100a6575b600080fd5b610060600480360381019061005b919061050d565b6100d6565b60405161006d919061057b565b60405180910390f35b610090600480360381019061008b9190610596565b610281565b60405161009d91906105d2565b60405180910390f35b6100c060048036038101906100bb91906105ed565b6102ca565b6040516100cd919061057b565b60405180910390f35b600081600260008673ffffffffffffffffffffffffffffffffffffffff1673ffffffffffffffffffffffffffffffffffffffff16815260200190815260200160002054101561015a576040517f08c379a0000000000000000000000000000000000000000000000000000000008152600401610151906106b0565b60405180910390fd5b81600260008673ffffffffffffffffffffffffffffffffffffffff1673ffffffffffffffffffffffffffffffffffffffff168152602001908152602001600020546101a591906106ff565b600260008673ffffffffffffffffffffffffffffffffffffffff1673ffffffffffffffffffffffffffffffffffffffff1681526020019081526020016000208190555081600260008573ffffffffffffffffffffffffffffffffffffffff1673ffffffffffffffffffffffffffffffffffffffff168152602001908152602001600020546102339190610733565b600260008573ffffffffffffffffffffffffffffffffffffffff1673ffffffffffffffffffffffffffffffffffffffff16815260200190815260200160002081905550600190509392505050565b6000600260008373ffffffffffffffffffffffffffffffffffffffff1673ffffffffffffffffffffffffffffffffffffffff168152602001908152602001600020549050919050565b6000600260003373ffffffffffffffffffffffffffffffffffffffff1673ffffffffffffffffffffffffffffffffffffffff1681526020019081526020016000205482111561034e576040517f08c379a0000000000000000000000000000000000000000000000000000000008152600401610345906106b0565b60405180910390fd5b81600260003373ffffffffffffffffffffffffffffffffffffffff1673ffffffffffffffffffffffffffffffffffffffff1681526020019081526020016000205461039991906106ff565b600260003373ffffffffffffffffffffffffffffffffffffffff1673ffffffffffffffffffffffffffffffffffffffff1681526020019081526020016000208190555081600260008573ffffffffffffffffffffffffffffffffffffffff1673ffffffffffffffffffffffffffffffffffffffff168152602001908152602001600020546104279190610733565b600260008573ffffffffffffffffffffffffffffffffffffffff1673ffffffffffffffffffffffffffffffffffffffff168152602001908152602001600020819055506001905092915050565b600080fd5b600073ffffffffffffffffffffffffffffffffffffffff82169050919050565b60006104a482610479565b9050919050565b6104b481610499565b81146104bf57600080fd5b50565b6000813590506104d1816104ab565b92915050565b6000819050919050565b6104ea816104d7565b81146104f557600080fd5b50565b600081359050610507816104e1565b92915050565b60008060006060848603121561052657610525610474565b5b6000610534868287016104c2565b9350506020610545868287016104c2565b9250506040610556868287016104f8565b9150509250925092565b60008115159050919050565b61057581610560565b82525050565b6000602082019050610590600083018461056c565b92915050565b6000602082840312156105ac576105ab610474565b5b60006105ba848285016104c2565b91505092915050565b6105cc816104d7565b82525050565b60006020820190506105e760008301846105c3565b92915050565b6000806040838503121561060457610603610474565b5b6000610612858286016104c2565b9250506020610623858286016104f8565b9150509250929050565b600082825260208201905092915050565b7f4e6f7420656e6f7567682062616c6e61636520696e2073656e6465722773206160008201527f63636f756e742e00000000000000000000000000000000000000000000000000602082015250565b600061069a60278361062d565b91506106a58261063e565b604082019050919050565b600060208201905081810360008301526106c98161068d565b9050919050565b7f4e487b7100000000000000000000000000000000000000000000000000000000600052601160045260246000fd5b600061070a826104d7565b9150610715836104d7565b925082820390508181111561072d5761072c6106d0565b5b92915050565b600061073e826104d7565b9150610749836104d7565b9250828201905080821115610761576107606106d0565b5b9291505056fea2646970667358221220801857bbfbc23ec007b0efbebe884d1702f9ada477371c25e7e7f3be41558c7864736f6c63430008110033",
  "immutableReferences": {},
  "source": "// SPDX-License-Identifier: UNLICENSED\n\npragma solidity >=0.7.0 <0.9.0;\ncontract CustomToken {\n  uint _totalSupply = 0;\n  string _symbol;\n  mapping(address => uint) balances;\n\n  constructor(string memory symbol, uint256 initialSupply) {\n    _symbol = symbol;\n    _totalSupply = initialSupply;\n    balances[msg.sender] = _totalSupply;\n  }\n\n  function transfer(address receiver, uint amount) public returns (bool) {\n    require(amount <= balances[msg.sender], \"Not enough balnace in sender's account.\");\n    balances[msg.sender] = balances[msg.sender] - amount;\n    balances[receiver] = balances[receiver] + amount;\n    return true;\n  }\n\n  function balanceOf(address account) public view returns(uint256){\n    return balances[account];\n  }\n\n  function transferFrom(address from, address to, uint256 amount) external returns (bool){\n      require(balances[from] >= amount, \"Not enough balnace in sender's account.\");\n      balances[from] = balances[from] - amount;\n      balances[to] = balances[to] + amount;\n      return true;\n  }\n\n  }\n",
  "sourcePath": "/Users/rahulbhatt/Documents/Assignements/Blockchain/project/eth-insurance-app/dApp/contracts/CustomToken.sol",
  "compiler": {
    "name": "solc",
    "version": "0.8.17+commit.8df45f5f.Emscripten.clang"
  },
  "schemaVersion": "3.4.10",
  "updatedAt": "2022-12-13T08:53:31.498Z",
  "networkType": "ethereum",
  "devdoc": {
    "kind": "dev",
    "methods": {},
    "version": 1
  },
  "userdoc": {
    "kind": "user",
    "methods": {},
    "version": 1
  }
}