{
  "contractName": "InsuranceManager",
  "abi": [
    {
      "inputs": [
        {
          "internalType": "address",
          "name": "onboardingAddr",
          "type": "address"
        },
        {
          "internalType": "address",
          "name": "claimManagerAddr",
          "type": "address"
        },
        {
          "internalType": "address",
          "name": "premiumCollectorAddr",
          "type": "address"
        }
      ],
      "stateMutability": "nonpayable",
      "type": "constructor"
    },
    {
      "inputs": [
        {
          "internalType": "address",
          "name": "userAddress",
          "type": "address"
        },
        {
          "internalType": "uint256",
          "name": "amountInsured",
          "type": "uint256"
        }
      ],
      "name": "onboardUser",
      "outputs": [
        {
          "components": [
            {
              "internalType": "string",
              "name": "name",
              "type": "string"
            },
            {
              "internalType": "uint256",
              "name": "amountInsured",
              "type": "uint256"
            },
            {
              "internalType": "uint256",
              "name": "amountDueEveryMonth",
              "type": "uint256"
            }
          ],
          "internalType": "struct Onboarding.Policy",
          "name": "policy",
          "type": "tuple"
        }
      ],
      "stateMutability": "nonpayable",
      "type": "function"
    },
    {
      "inputs": [
        {
          "internalType": "address",
          "name": "userAddress",
          "type": "address"
        },
        {
          "internalType": "uint256",
          "name": "amount",
          "type": "uint256"
        }
      ],
      "name": "payPremium",
      "outputs": [],
      "stateMutability": "nonpayable",
      "type": "function"
    },
    {
      "inputs": [
        {
          "internalType": "address",
          "name": "userAddress",
          "type": "address"
        },
        {
          "internalType": "uint256",
          "name": "amountClaimed",
          "type": "uint256"
        }
      ],
      "name": "requestClaim",
      "outputs": [],
      "stateMutability": "nonpayable",
      "type": "function"
    }
  ],
  "bytecode": "0x608060405234801561001057600080fd5b506040516108ed3803806108ed8339818101604052810190610032919061015f565b826000806101000a81548173ffffffffffffffffffffffffffffffffffffffff021916908373ffffffffffffffffffffffffffffffffffffffff16021790555081600160006101000a81548173ffffffffffffffffffffffffffffffffffffffff021916908373ffffffffffffffffffffffffffffffffffffffff16021790555080600260006101000a81548173ffffffffffffffffffffffffffffffffffffffff021916908373ffffffffffffffffffffffffffffffffffffffff1602179055505050506101b2565b600080fd5b600073ffffffffffffffffffffffffffffffffffffffff82169050919050565b600061012c82610101565b9050919050565b61013c81610121565b811461014757600080fd5b50565b60008151905061015981610133565b92915050565b600080600060608486031215610178576101776100fc565b5b60006101868682870161014a565b93505060206101978682870161014a565b92505060406101a88682870161014a565b9150509250925092565b61072c806101c16000396000f3fe608060405234801561001057600080fd5b50600436106100415760003560e01c806301e51e9714610046578063bc2704bf14610062578063f64062461461007e575b600080fd5b610060600480360381019061005b9190610350565b6100ae565b005b61007c60048036038101906100779190610350565b610141565b005b61009860048036038101906100939190610350565b6101d4565b6040516100a5919061047f565b60405180910390f35b600160009054906101000a900473ffffffffffffffffffffffffffffffffffffffff1673ffffffffffffffffffffffffffffffffffffffff166301e51e9783836040518363ffffffff1660e01b815260040161010b9291906104bf565b600060405180830381600087803b15801561012557600080fd5b505af1158015610139573d6000803e3d6000fd5b505050505050565b600260009054906101000a900473ffffffffffffffffffffffffffffffffffffffff1673ffffffffffffffffffffffffffffffffffffffff1663c407687683836040518363ffffffff1660e01b815260040161019e9291906104bf565b600060405180830381600087803b1580156101b857600080fd5b505af11580156101cc573d6000803e3d6000fd5b505050505050565b6101dc610287565b60008054906101000a900473ffffffffffffffffffffffffffffffffffffffff1673ffffffffffffffffffffffffffffffffffffffff1663f640624684846040518363ffffffff1660e01b81526004016102379291906104bf565b6000604051808303816000875af1158015610256573d6000803e3d6000fd5b505050506040513d6000823e3d601f19601f8201168201806040525081019061027f91906106ad565b905092915050565b60405180606001604052806060815260200160008152602001600081525090565b6000604051905090565b600080fd5b600080fd5b600073ffffffffffffffffffffffffffffffffffffffff82169050919050565b60006102e7826102bc565b9050919050565b6102f7816102dc565b811461030257600080fd5b50565b600081359050610314816102ee565b92915050565b6000819050919050565b61032d8161031a565b811461033857600080fd5b50565b60008135905061034a81610324565b92915050565b60008060408385031215610367576103666102b2565b5b600061037585828601610305565b92505060206103868582860161033b565b9150509250929050565b600081519050919050565b600082825260208201905092915050565b60005b838110156103ca5780820151818401526020810190506103af565b60008484015250505050565b6000601f19601f8301169050919050565b60006103f282610390565b6103fc818561039b565b935061040c8185602086016103ac565b610415816103d6565b840191505092915050565b6104298161031a565b82525050565b6000606083016000830151848203600086015261044c82826103e7565b91505060208301516104616020860182610420565b5060408301516104746040860182610420565b508091505092915050565b60006020820190508181036000830152610499818461042f565b905092915050565b6104aa816102dc565b82525050565b6104b98161031a565b82525050565b60006040820190506104d460008301856104a1565b6104e160208301846104b0565b9392505050565b600080fd5b7f4e487b7100000000000000000000000000000000000000000000000000000000600052604160045260246000fd5b610525826103d6565b810181811067ffffffffffffffff82111715610544576105436104ed565b5b80604052505050565b60006105576102a8565b9050610563828261051c565b919050565b600080fd5b600080fd5b600080fd5b600067ffffffffffffffff821115610592576105916104ed565b5b61059b826103d6565b9050602081019050919050565b60006105bb6105b684610577565b61054d565b9050828152602081018484840111156105d7576105d6610572565b5b6105e28482856103ac565b509392505050565b600082601f8301126105ff576105fe61056d565b5b815161060f8482602086016105a8565b91505092915050565b60008151905061062781610324565b92915050565b600060608284031215610643576106426104e8565b5b61064d606061054d565b9050600082015167ffffffffffffffff81111561066d5761066c610568565b5b610679848285016105ea565b600083015250602061068d84828501610618565b60208301525060406106a184828501610618565b60408301525092915050565b6000602082840312156106c3576106c26102b2565b5b600082015167ffffffffffffffff8111156106e1576106e06102b7565b5b6106ed8482850161062d565b9150509291505056fea26469706673582212205899d3d99a6cf52bec5753b56547c63c41df06b449c10f453789d419caf63aa764736f6c63430008110033",
  "immutableReferences": {},
  "source": "// SPDX-License-Identifier: UNLICENSED\n\nimport \"./Onboarding.sol\";\nimport \"./ClaimManager.sol\";\nimport \"./PremiumCollector.sol\";\n\npragma solidity >=0.7.0 <0.9.0;\n\ncontract InsuranceManager {\n    Onboarding onboarding;\n    ClaimManager claimManager;\n    PremiumCollector premiumCollector;\n\n    constructor (address onboardingAddr, address claimManagerAddr, address premiumCollectorAddr) {\n        onboarding = Onboarding(onboardingAddr);\n        claimManager = ClaimManager(claimManagerAddr);\n        premiumCollector = PremiumCollector(premiumCollectorAddr);\n    }\n    \n    function onboardUser(address userAddress, uint amountInsured) public returns (Onboarding.Policy memory policy) {\n        return onboarding.onboardUser(userAddress, amountInsured);\n    }\n\n    function payPremium(address userAddress, uint amount) public {\n        premiumCollector.pay(userAddress, amount);\n    }\n\n    function requestClaim(address userAddress, uint amountClaimed) public {\n        claimManager.requestClaim(userAddress, amountClaimed);\n    }\n\n}",
  "sourcePath": "/Users/rahulbhatt/Documents/Assignements/Blockchain/project/eth-insurance-app/dApp/contracts/InsuranceManager.sol",
  "compiler": {
    "name": "solc",
    "version": "0.8.17+commit.8df45f5f.Emscripten.clang"
  },
  "schemaVersion": "3.4.10",
  "updatedAt": "2022-12-01T06:29:33.709Z",
  "devdoc": {
    "kind": "dev",
    "methods": {},
    "version": 1
  },
  "userdoc": {
    "kind": "user",
    "methods": {},
    "version": 1
  }
}