{
  "contractName": "InsuranceManager",
  "abi": [
    {
      "inputs": [
        {
          "internalType": "address",
          "name": "onboardingAddr",
          "type": "address"
        },
        {
          "internalType": "address",
          "name": "claimManagerAddr",
          "type": "address"
        },
        {
          "internalType": "address",
          "name": "premiumCollectorAddr",
          "type": "address"
        }
      ],
      "stateMutability": "nonpayable",
      "type": "constructor"
    },
    {
      "anonymous": false,
      "inputs": [
        {
          "indexed": false,
          "internalType": "address",
          "name": "userAddress",
          "type": "address"
        },
        {
          "indexed": false,
          "internalType": "string",
          "name": "policyName",
          "type": "string"
        },
        {
          "indexed": false,
          "internalType": "uint256",
          "name": "amountInsured",
          "type": "uint256"
        },
        {
          "indexed": false,
          "internalType": "uint256",
          "name": "amountDueEveryMonth",
          "type": "uint256"
        }
      ],
      "name": "UserPolicy",
      "type": "event"
    },
    {
      "inputs": [
        {
          "internalType": "address",
          "name": "userAddress",
          "type": "address"
        },
        {
          "internalType": "uint256",
          "name": "amountInsured",
          "type": "uint256"
        }
      ],
      "name": "onboardUser",
      "outputs": [],
      "stateMutability": "nonpayable",
      "type": "function"
    },
    {
      "inputs": [
        {
          "internalType": "address",
          "name": "userAddress",
          "type": "address"
        }
      ],
      "name": "getUserPolicy",
      "outputs": [],
      "stateMutability": "nonpayable",
      "type": "function"
    },
    {
      "inputs": [
        {
          "internalType": "address",
          "name": "userAddress",
          "type": "address"
        },
        {
          "internalType": "uint256",
          "name": "amount",
          "type": "uint256"
        }
      ],
      "name": "payPremium",
      "outputs": [],
      "stateMutability": "nonpayable",
      "type": "function"
    },
    {
      "inputs": [
        {
          "internalType": "address",
          "name": "userAddress",
          "type": "address"
        },
        {
          "internalType": "uint256",
          "name": "amountClaimed",
          "type": "uint256"
        }
      ],
      "name": "requestClaim",
      "outputs": [],
      "stateMutability": "nonpayable",
      "type": "function"
    },
    {
      "inputs": [
        {
          "internalType": "address",
          "name": "userAddress",
          "type": "address"
        }
      ],
      "name": "approveClaimRequest",
      "outputs": [],
      "stateMutability": "nonpayable",
      "type": "function"
    },
    {
      "inputs": [
        {
          "internalType": "address",
          "name": "userAddress",
          "type": "address"
        },
        {
          "internalType": "string",
          "name": "reason",
          "type": "string"
        }
      ],
      "name": "declineClaimRequest",
      "outputs": [],
      "stateMutability": "nonpayable",
      "type": "function"
    }
  ],
  "bytecode": "0x608060405234801561001057600080fd5b50604051610ca2380380610ca28339818101604052810190610032919061015f565b826000806101000a81548173ffffffffffffffffffffffffffffffffffffffff021916908373ffffffffffffffffffffffffffffffffffffffff16021790555081600160006101000a81548173ffffffffffffffffffffffffffffffffffffffff021916908373ffffffffffffffffffffffffffffffffffffffff16021790555080600260006101000a81548173ffffffffffffffffffffffffffffffffffffffff021916908373ffffffffffffffffffffffffffffffffffffffff1602179055505050506101b2565b600080fd5b600073ffffffffffffffffffffffffffffffffffffffff82169050919050565b600061012c82610101565b9050919050565b61013c81610121565b811461014757600080fd5b50565b60008151905061015981610133565b92915050565b600080600060608486031215610178576101776100fc565b5b60006101868682870161014a565b93505060206101978682870161014a565b92505060406101a88682870161014a565b9150509250925092565b610ae1806101c16000396000f3fe608060405234801561001057600080fd5b50600436106100625760003560e01c806301e51e9714610067578063761d9e6814610083578063bc2704bf1461009f578063da36f667146100bb578063e315c78f146100d7578063f6406246146100f3575b600080fd5b610081600480360381019061007c91906105e7565b61010f565b005b61009d60048036038101906100989190610627565b6101a2565b005b6100b960048036038101906100b491906105e7565b610293565b005b6100d560048036038101906100d09190610627565b610326565b005b6100f160048036038101906100ec919061079a565b6103b6565b005b61010d600480360381019061010891906105e7565b610449565b005b600160009054906101000a900473ffffffffffffffffffffffffffffffffffffffff1673ffffffffffffffffffffffffffffffffffffffff166301e51e9783836040518363ffffffff1660e01b815260040161016c929190610814565b600060405180830381600087803b15801561018657600080fd5b505af115801561019a573d6000803e3d6000fd5b505050505050565b60008060009054906101000a900473ffffffffffffffffffffffffffffffffffffffff1673ffffffffffffffffffffffffffffffffffffffff166316846699836040518263ffffffff1660e01b81526004016101fe919061083d565b600060405180830381865afa15801561021b573d6000803e3d6000fd5b505050506040513d6000823e3d601f19601f820116820180604052508101906102449190610991565b90507fe519381d45e3242611d4f9d194af26ddd14f11fe7fe6b7779939a910dd3b8521828260000151836020015184604001516040516102879493929190610a2f565b60405180910390a15050565b600260009054906101000a900473ffffffffffffffffffffffffffffffffffffffff1673ffffffffffffffffffffffffffffffffffffffff1663c407687683836040518363ffffffff1660e01b81526004016102f0929190610814565b600060405180830381600087803b15801561030a57600080fd5b505af115801561031e573d6000803e3d6000fd5b505050505050565b600160009054906101000a900473ffffffffffffffffffffffffffffffffffffffff1673ffffffffffffffffffffffffffffffffffffffff1663da36f667826040518263ffffffff1660e01b8152600401610381919061083d565b600060405180830381600087803b15801561039b57600080fd5b505af11580156103af573d6000803e3d6000fd5b5050505050565b600160009054906101000a900473ffffffffffffffffffffffffffffffffffffffff1673ffffffffffffffffffffffffffffffffffffffff1663e315c78f83836040518363ffffffff1660e01b8152600401610413929190610a7b565b600060405180830381600087803b15801561042d57600080fd5b505af1158015610441573d6000803e3d6000fd5b505050505050565b60008060009054906101000a900473ffffffffffffffffffffffffffffffffffffffff1673ffffffffffffffffffffffffffffffffffffffff1663f640624684846040518363ffffffff1660e01b81526004016104a7929190610814565b6000604051808303816000875af11580156104c6573d6000803e3d6000fd5b505050506040513d6000823e3d601f19601f820116820180604052508101906104ef9190610991565b90507fe519381d45e3242611d4f9d194af26ddd14f11fe7fe6b7779939a910dd3b8521838260000151836020015184604001516040516105329493929190610a2f565b60405180910390a1505050565b6000604051905090565b600080fd5b600080fd5b600073ffffffffffffffffffffffffffffffffffffffff82169050919050565b600061057e82610553565b9050919050565b61058e81610573565b811461059957600080fd5b50565b6000813590506105ab81610585565b92915050565b6000819050919050565b6105c4816105b1565b81146105cf57600080fd5b50565b6000813590506105e1816105bb565b92915050565b600080604083850312156105fe576105fd610549565b5b600061060c8582860161059c565b925050602061061d858286016105d2565b9150509250929050565b60006020828403121561063d5761063c610549565b5b600061064b8482850161059c565b91505092915050565b600080fd5b600080fd5b6000601f19601f8301169050919050565b7f4e487b7100000000000000000000000000000000000000000000000000000000600052604160045260246000fd5b6106a78261065e565b810181811067ffffffffffffffff821117156106c6576106c561066f565b5b80604052505050565b60006106d961053f565b90506106e5828261069e565b919050565b600067ffffffffffffffff8211156107055761070461066f565b5b61070e8261065e565b9050602081019050919050565b82818337600083830152505050565b600061073d610738846106ea565b6106cf565b90508281526020810184848401111561075957610758610659565b5b61076484828561071b565b509392505050565b600082601f83011261078157610780610654565b5b813561079184826020860161072a565b91505092915050565b600080604083850312156107b1576107b0610549565b5b60006107bf8582860161059c565b925050602083013567ffffffffffffffff8111156107e0576107df61054e565b5b6107ec8582860161076c565b9150509250929050565b6107ff81610573565b82525050565b61080e816105b1565b82525050565b600060408201905061082960008301856107f6565b6108366020830184610805565b9392505050565b600060208201905061085260008301846107f6565b92915050565b600080fd5b600080fd5b60005b83811015610880578082015181840152602081019050610865565b60008484015250505050565b600061089f61089a846106ea565b6106cf565b9050828152602081018484840111156108bb576108ba610659565b5b6108c6848285610862565b509392505050565b600082601f8301126108e3576108e2610654565b5b81516108f384826020860161088c565b91505092915050565b60008151905061090b816105bb565b92915050565b60006060828403121561092757610926610858565b5b61093160606106cf565b9050600082015167ffffffffffffffff8111156109515761095061085d565b5b61095d848285016108ce565b6000830152506020610971848285016108fc565b6020830152506040610985848285016108fc565b60408301525092915050565b6000602082840312156109a7576109a6610549565b5b600082015167ffffffffffffffff8111156109c5576109c461054e565b5b6109d184828501610911565b91505092915050565b600081519050919050565b600082825260208201905092915050565b6000610a01826109da565b610a0b81856109e5565b9350610a1b818560208601610862565b610a248161065e565b840191505092915050565b6000608082019050610a4460008301876107f6565b8181036020830152610a5681866109f6565b9050610a656040830185610805565b610a726060830184610805565b95945050505050565b6000604082019050610a9060008301856107f6565b8181036020830152610aa281846109f6565b9050939250505056fea2646970667358221220b6514641bcc5616182863575d0ba9c6a62d50cc9e802fb1a23556daa030c2ef664736f6c63430008110033",
  "immutableReferences": {},
  "source": "// SPDX-License-Identifier: UNLICENSED\n\nimport \"./Onboarding.sol\";\nimport \"./ClaimManager.sol\";\nimport \"./PremiumCollector.sol\";\n\npragma solidity >=0.7.0 <0.9.0;\n\ncontract InsuranceManager {\n    Onboarding onboarding;\n    ClaimManager claimManager;\n    PremiumCollector premiumCollector;\n\n    constructor (address onboardingAddr, address claimManagerAddr, address premiumCollectorAddr) {\n        onboarding = Onboarding(onboardingAddr);\n        claimManager = ClaimManager(claimManagerAddr);\n        premiumCollector = PremiumCollector(premiumCollectorAddr);\n    }\n\n    event UserPolicy (\n        address userAddress,\n        string policyName,\n        uint amountInsured,\n        uint amountDueEveryMonth\n    );\n\n    function onboardUser(address userAddress, uint amountInsured) external {\n         Onboarding.Policy memory policy = onboarding.onboardUser(userAddress, amountInsured);\n         emit UserPolicy(userAddress, policy.name, policy.amountInsured, policy.amountDueEveryMonth);\n    }\n\n    function getUserPolicy(address userAddress) external {\n        Onboarding.Policy memory policy = onboarding.gerUserPolicy(userAddress);\n        emit UserPolicy(userAddress, policy.name, policy.amountInsured, policy.amountDueEveryMonth);\n    }\n\n    function payPremium(address userAddress, uint amount) public {\n        premiumCollector.pay(userAddress, amount);\n    }\n\n    function requestClaim(address userAddress, uint amountClaimed) public {\n        claimManager.requestClaim(userAddress, amountClaimed);\n    }\n\n    function approveClaimRequest(address userAddress) public {\n        claimManager.approveClaimRequest(userAddress);\n    }\n\n    function declineClaimRequest(address userAddress, string memory reason) public {\n        claimManager.declineClaimRequest(userAddress, reason);\n    }\n}",
  "sourcePath": "/Users/rahulbhatt/Documents/Assignements/Blockchain/project/eth-insurance-app/dApp/contracts/InsuranceManager.sol",
  "compiler": {
    "name": "solc",
    "version": "0.8.17+commit.8df45f5f.Emscripten.clang"
  },
  "schemaVersion": "3.4.10",
  "updatedAt": "2022-12-11T23:08:46.755Z",
  "networkType": "ethereum",
  "devdoc": {
    "kind": "dev",
    "methods": {},
    "version": 1
  },
  "userdoc": {
    "kind": "user",
    "methods": {},
    "version": 1
  }
}