{
  "contractName": "Onboarding",
  "abi": [
    {
      "inputs": [
        {
          "internalType": "address",
          "name": "userAddress",
          "type": "address"
        },
        {
          "internalType": "uint256",
          "name": "amountInsured",
          "type": "uint256"
        }
      ],
      "name": "onboardUser",
      "outputs": [
        {
          "components": [
            {
              "internalType": "string",
              "name": "name",
              "type": "string"
            },
            {
              "internalType": "uint256",
              "name": "amountInsured",
              "type": "uint256"
            },
            {
              "internalType": "uint256",
              "name": "amountDueEveryMonth",
              "type": "uint256"
            }
          ],
          "internalType": "struct Onboarding.Policy",
          "name": "policy",
          "type": "tuple"
        }
      ],
      "stateMutability": "nonpayable",
      "type": "function"
    }
  ],
  "bytecode": "0x608060405234801561001057600080fd5b5061077b806100206000396000f3fe608060405234801561001057600080fd5b506004361061002b5760003560e01c8063f640624614610030575b600080fd5b61004a60048036038101906100459190610216565b610060565b6040516100579190610345565b60405180910390f35b61006861015c565b6000600a6002846100799190610396565b6100839190610407565b90506000600c826100949190610407565b905060405180606001604052806040518060400160405280601081526020017f54686520466972737420506f6c696379000000000000000000000000000000008152508152602001858152602001828152509250826000808773ffffffffffffffffffffffffffffffffffffffff1673ffffffffffffffffffffffffffffffffffffffff168152602001908152602001600020600082015181600001908161013c9190610673565b506020820151816001015560408201518160020155905050505092915050565b60405180606001604052806060815260200160008152602001600081525090565b600080fd5b600073ffffffffffffffffffffffffffffffffffffffff82169050919050565b60006101ad82610182565b9050919050565b6101bd816101a2565b81146101c857600080fd5b50565b6000813590506101da816101b4565b92915050565b6000819050919050565b6101f3816101e0565b81146101fe57600080fd5b50565b600081359050610210816101ea565b92915050565b6000806040838503121561022d5761022c61017d565b5b600061023b858286016101cb565b925050602061024c85828601610201565b9150509250929050565b600081519050919050565b600082825260208201905092915050565b60005b83811015610290578082015181840152602081019050610275565b60008484015250505050565b6000601f19601f8301169050919050565b60006102b882610256565b6102c28185610261565b93506102d2818560208601610272565b6102db8161029c565b840191505092915050565b6102ef816101e0565b82525050565b6000606083016000830151848203600086015261031282826102ad565b915050602083015161032760208601826102e6565b50604083015161033a60408601826102e6565b508091505092915050565b6000602082019050818103600083015261035f81846102f5565b905092915050565b7f4e487b7100000000000000000000000000000000000000000000000000000000600052601160045260246000fd5b60006103a1826101e0565b91506103ac836101e0565b92508282026103ba816101e0565b915082820484148315176103d1576103d0610367565b5b5092915050565b7f4e487b7100000000000000000000000000000000000000000000000000000000600052601260045260246000fd5b6000610412826101e0565b915061041d836101e0565b92508261042d5761042c6103d8565b5b828204905092915050565b7f4e487b7100000000000000000000000000000000000000000000000000000000600052604160045260246000fd5b7f4e487b7100000000000000000000000000000000000000000000000000000000600052602260045260246000fd5b600060028204905060018216806104ae57607f821691505b6020821081036104c1576104c0610467565b5b50919050565b60008190508160005260206000209050919050565b60006020601f8301049050919050565b600082821b905092915050565b6000600883026105297fffffffffffffffffffffffffffffffffffffffffffffffffffffffffffffffff826104ec565b61053386836104ec565b95508019841693508086168417925050509392505050565b6000819050919050565b600061057061056b610566846101e0565b61054b565b6101e0565b9050919050565b6000819050919050565b61058a83610555565b61059e61059682610577565b8484546104f9565b825550505050565b600090565b6105b36105a6565b6105be818484610581565b505050565b5b818110156105e2576105d76000826105ab565b6001810190506105c4565b5050565b601f821115610627576105f8816104c7565b610601846104dc565b81016020851015610610578190505b61062461061c856104dc565b8301826105c3565b50505b505050565b600082821c905092915050565b600061064a6000198460080261062c565b1980831691505092915050565b60006106638383610639565b9150826002028217905092915050565b61067c82610256565b67ffffffffffffffff81111561069557610694610438565b5b61069f8254610496565b6106aa8282856105e6565b600060209050601f8311600181146106dd57600084156106cb578287015190505b6106d58582610657565b86555061073d565b601f1984166106eb866104c7565b60005b82811015610713578489015182556001820191506020850194506020810190506106ee565b86831015610730578489015161072c601f891682610639565b8355505b6001600288020188555050505b50505050505056fea2646970667358221220a182639b7f0ae076804a47203e7574c9b05325f49a378507a78239493d8fa7e364736f6c63430008110033",
  "immutableReferences": {},
  "source": "// SPDX-License-Identifier: UNLICENSED\n\npragma solidity >=0.7.0 <0.9.0;\n\ncontract Onboarding {\n\n    mapping(address => Policy) userPolicies;\n    \n    struct Policy {\n        string name;\n        uint amountInsured;\n        uint amountDueEveryMonth;\n    }\n\n    // Every user pays a premium of 20 percent of the amount he ensures for one year\n    function onboardUser(address userAddress, uint amountInsured) public returns (Policy memory policy){\n        uint premium = (amountInsured * 2) / 10;\n        uint amountDuePerMonth = premium / 12;\n        policy = Policy(\"The First Policy\", amountInsured, amountDuePerMonth);\n        userPolicies[userAddress] = policy;\n\n        return policy;\n    }\n}",
  "sourcePath": "/Users/rahulbhatt/Documents/Assignements/Blockchain/project/eth-insurance-app/dApp/contracts/Onboarding.sol",
  "compiler": {
    "name": "solc",
    "version": "0.8.17+commit.8df45f5f.Emscripten.clang"
  },
  "schemaVersion": "3.4.10",
  "updatedAt": "2022-12-01T06:29:37.025Z",
  "networkType": "ethereum",
  "devdoc": {
    "kind": "dev",
    "methods": {},
    "version": 1
  },
  "userdoc": {
    "kind": "user",
    "methods": {},
    "version": 1
  }
}