{
  "contractName": "Onboarding",
  "abi": [
    {
      "inputs": [
        {
          "internalType": "address",
          "name": "userAddress",
          "type": "address"
        },
        {
          "internalType": "uint256",
          "name": "amountInsured",
          "type": "uint256"
        }
      ],
      "name": "onboardUser",
      "outputs": [
        {
          "components": [
            {
              "internalType": "string",
              "name": "name",
              "type": "string"
            },
            {
              "internalType": "uint256",
              "name": "amountInsured",
              "type": "uint256"
            },
            {
              "internalType": "uint256",
              "name": "amountDueEveryMonth",
              "type": "uint256"
            }
          ],
          "internalType": "struct Onboarding.Policy",
          "name": "policy",
          "type": "tuple"
        }
      ],
      "stateMutability": "nonpayable",
      "type": "function"
    },
    {
      "inputs": [
        {
          "internalType": "address",
          "name": "userAddress",
          "type": "address"
        }
      ],
      "name": "gerUserPolicy",
      "outputs": [
        {
          "components": [
            {
              "internalType": "string",
              "name": "name",
              "type": "string"
            },
            {
              "internalType": "uint256",
              "name": "amountInsured",
              "type": "uint256"
            },
            {
              "internalType": "uint256",
              "name": "amountDueEveryMonth",
              "type": "uint256"
            }
          ],
          "internalType": "struct Onboarding.Policy",
          "name": "policy",
          "type": "tuple"
        }
      ],
      "stateMutability": "view",
      "type": "function",
      "constant": true
    }
  ],
  "bytecode": "0x608060405234801561001057600080fd5b506108ef806100206000396000f3fe608060405234801561001057600080fd5b50600436106100365760003560e01c8063168466991461003b578063f64062461461006b575b600080fd5b61005560048036038101906100509190610327565b61009b565b604051610062919061044d565b60405180910390f35b6100856004803603810190610080919061049b565b610199565b604051610092919061044d565b60405180910390f35b6100a36102a3565b6000808373ffffffffffffffffffffffffffffffffffffffff1673ffffffffffffffffffffffffffffffffffffffff1681526020019081526020016000206040518060600160405290816000820180546100fc9061050a565b80601f01602080910402602001604051908101604052809291908181526020018280546101289061050a565b80156101755780601f1061014a57610100808354040283529160200191610175565b820191906000526020600020905b81548152906001019060200180831161015857829003601f168201915b50505050508152602001600182015481526020016002820154815250509050919050565b6101a16102a3565b6000600a6002846101b2919061056a565b6101bc91906105db565b90506000600c826101cd91906105db565b905060018110156101dd57600190505b60405180606001604052806040518060400160405280601081526020017f54686520466972737420506f6c696379000000000000000000000000000000008152508152602001858152602001828152509250826000808773ffffffffffffffffffffffffffffffffffffffff1673ffffffffffffffffffffffffffffffffffffffff168152602001908152602001600020600082015181600001908161028391906107e7565b506020820151816001015560408201518160020155905050505092915050565b60405180606001604052806060815260200160008152602001600081525090565b600080fd5b600073ffffffffffffffffffffffffffffffffffffffff82169050919050565b60006102f4826102c9565b9050919050565b610304816102e9565b811461030f57600080fd5b50565b600081359050610321816102fb565b92915050565b60006020828403121561033d5761033c6102c4565b5b600061034b84828501610312565b91505092915050565b600081519050919050565b600082825260208201905092915050565b60005b8381101561038e578082015181840152602081019050610373565b60008484015250505050565b6000601f19601f8301169050919050565b60006103b682610354565b6103c0818561035f565b93506103d0818560208601610370565b6103d98161039a565b840191505092915050565b6000819050919050565b6103f7816103e4565b82525050565b6000606083016000830151848203600086015261041a82826103ab565b915050602083015161042f60208601826103ee565b50604083015161044260408601826103ee565b508091505092915050565b6000602082019050818103600083015261046781846103fd565b905092915050565b610478816103e4565b811461048357600080fd5b50565b6000813590506104958161046f565b92915050565b600080604083850312156104b2576104b16102c4565b5b60006104c085828601610312565b92505060206104d185828601610486565b9150509250929050565b7f4e487b7100000000000000000000000000000000000000000000000000000000600052602260045260246000fd5b6000600282049050600182168061052257607f821691505b602082108103610535576105346104db565b5b50919050565b7f4e487b7100000000000000000000000000000000000000000000000000000000600052601160045260246000fd5b6000610575826103e4565b9150610580836103e4565b925082820261058e816103e4565b915082820484148315176105a5576105a461053b565b5b5092915050565b7f4e487b7100000000000000000000000000000000000000000000000000000000600052601260045260246000fd5b60006105e6826103e4565b91506105f1836103e4565b925082610601576106006105ac565b5b828204905092915050565b7f4e487b7100000000000000000000000000000000000000000000000000000000600052604160045260246000fd5b60008190508160005260206000209050919050565b60006020601f8301049050919050565b600082821b905092915050565b60006008830261069d7fffffffffffffffffffffffffffffffffffffffffffffffffffffffffffffffff82610660565b6106a78683610660565b95508019841693508086168417925050509392505050565b6000819050919050565b60006106e46106df6106da846103e4565b6106bf565b6103e4565b9050919050565b6000819050919050565b6106fe836106c9565b61071261070a826106eb565b84845461066d565b825550505050565b600090565b61072761071a565b6107328184846106f5565b505050565b5b818110156107565761074b60008261071f565b600181019050610738565b5050565b601f82111561079b5761076c8161063b565b61077584610650565b81016020851015610784578190505b61079861079085610650565b830182610737565b50505b505050565b600082821c905092915050565b60006107be600019846008026107a0565b1980831691505092915050565b60006107d783836107ad565b9150826002028217905092915050565b6107f082610354565b67ffffffffffffffff8111156108095761080861060c565b5b610813825461050a565b61081e82828561075a565b600060209050601f831160018114610851576000841561083f578287015190505b61084985826107cb565b8655506108b1565b601f19841661085f8661063b565b60005b8281101561088757848901518255600182019150602085019450602081019050610862565b868310156108a457848901516108a0601f8916826107ad565b8355505b6001600288020188555050505b50505050505056fea2646970667358221220af63ac96ea11a22695577486c13e1162b230f27817ea5d63b5d62bf58cc67bc464736f6c63430008110033",
  "immutableReferences": {},
  "source": "// SPDX-License-Identifier: UNLICENSED\r\n\r\npragma solidity >=0.7.0 <0.9.0;\r\n\r\ncontract Onboarding {\r\n\r\n    mapping(address => Policy) userPolicies;\r\n    \r\n    struct Policy {\r\n        string name;\r\n        uint amountInsured;\r\n        uint amountDueEveryMonth;\r\n    }\r\n\r\n    // Every user pays a premium of 20 percent of the amount he ensures for one year\r\n    function onboardUser(address userAddress, uint amountInsured) public returns (Policy memory policy){\r\n        uint premium = (amountInsured * 2) / 10;\r\n        uint amountDuePerMonth = premium / 12;\r\n        if(amountDuePerMonth < 1) {\r\n            amountDuePerMonth = 1;\r\n        }\r\n        \r\n        policy = Policy(\"The First Policy\", amountInsured, amountDuePerMonth);\r\n        userPolicies[userAddress] = policy;\r\n\r\n        return policy;\r\n    }\r\n\r\n    function gerUserPolicy(address userAddress) view public returns (Policy memory policy){\r\n        return userPolicies[userAddress];\r\n    }\r\n}",
  "sourcePath": "C:\\Users\\anshu\\IdeaProjects\\eth-insurance-app\\dApp\\contracts\\Onboarding.sol",
  "compiler": {
    "name": "solc",
    "version": "0.8.17+commit.8df45f5f.Emscripten.clang"
  },
  "schemaVersion": "3.4.11",
  "updatedAt": "2022-12-13T17:25:15.359Z",
  "networkType": "ethereum",
  "devdoc": {
    "kind": "dev",
    "methods": {},
    "version": 1
  },
  "userdoc": {
    "kind": "user",
    "methods": {},
    "version": 1
  }
}