{
  "contractName": "PremiumCollector",
  "abi": [
    {
      "inputs": [
        {
          "internalType": "address",
          "name": "customTokenAddr",
          "type": "address"
        }
      ],
      "stateMutability": "nonpayable",
      "type": "constructor"
    },
    {
      "inputs": [
        {
          "internalType": "address",
          "name": "userAddress",
          "type": "address"
        },
        {
          "internalType": "uint256",
          "name": "amount",
          "type": "uint256"
        }
      ],
      "name": "pay",
      "outputs": [],
      "stateMutability": "nonpayable",
      "type": "function"
    }
  ],
  "bytecode": "0x608060405234801561001057600080fd5b506040516103dd3803806103dd833981810160405281019061003291906100db565b806000806101000a81548173ffffffffffffffffffffffffffffffffffffffff021916908373ffffffffffffffffffffffffffffffffffffffff16021790555050610108565b600080fd5b600073ffffffffffffffffffffffffffffffffffffffff82169050919050565b60006100a88261007d565b9050919050565b6100b88161009d565b81146100c357600080fd5b50565b6000815190506100d5816100af565b92915050565b6000602082840312156100f1576100f0610078565b5b60006100ff848285016100c6565b91505092915050565b6102c6806101176000396000f3fe608060405234801561001057600080fd5b506004361061002b5760003560e01c8063c407687614610030575b600080fd5b61004a60048036038101906100459190610196565b61004c565b005b6000829050600033905060008054906101000a900473ffffffffffffffffffffffffffffffffffffffff1673ffffffffffffffffffffffffffffffffffffffff166323b872dd8383866040518463ffffffff1660e01b81526004016100b3939291906101f4565b6020604051808303816000875af11580156100d2573d6000803e3d6000fd5b505050506040513d601f19601f820116820180604052508101906100f69190610263565b5050505050565b600080fd5b600073ffffffffffffffffffffffffffffffffffffffff82169050919050565b600061012d82610102565b9050919050565b61013d81610122565b811461014857600080fd5b50565b60008135905061015a81610134565b92915050565b6000819050919050565b61017381610160565b811461017e57600080fd5b50565b6000813590506101908161016a565b92915050565b600080604083850312156101ad576101ac6100fd565b5b60006101bb8582860161014b565b92505060206101cc85828601610181565b9150509250929050565b6101df81610122565b82525050565b6101ee81610160565b82525050565b600060608201905061020960008301866101d6565b61021660208301856101d6565b61022360408301846101e5565b949350505050565b60008115159050919050565b6102408161022b565b811461024b57600080fd5b50565b60008151905061025d81610237565b92915050565b600060208284031215610279576102786100fd565b5b60006102878482850161024e565b9150509291505056fea2646970667358221220a60e20495a92591e254a4a2f22f2813cc8865f0fd31ccaa44539e998c5bd7b9864736f6c63430008110033",
  "immutableReferences": {},
  "source": "// SPDX-License-Identifier: UNLICENSED\r\n\r\nimport \"./CustomToken.sol\";\r\n\r\npragma solidity >=0.7.0 <0.9.0;\r\n\r\ncontract PremiumCollector {\r\n    CustomToken customToken;\r\n\r\n    constructor (address customTokenAddr) {\r\n        customToken = CustomToken(customTokenAddr);\r\n    }\r\n    \r\n    function pay(address userAddress, uint amount) public {\r\n        //transfer from company's account into the user's account\r\n\r\n        address from = userAddress;\r\n        address to = msg.sender;//company address here\r\n        customToken.transferFrom(from, to, amount);\r\n    }\r\n}",
  "sourcePath": "C:\\Users\\anshu\\IdeaProjects\\eth-insurance-app\\dApp\\contracts\\PremiumCollector.sol",
  "compiler": {
    "name": "solc",
    "version": "0.8.17+commit.8df45f5f.Emscripten.clang"
  },
  "schemaVersion": "3.4.11",
  "updatedAt": "2022-12-13T17:25:15.362Z",
  "networkType": "ethereum",
  "devdoc": {
    "kind": "dev",
    "methods": {},
    "version": 1
  },
  "userdoc": {
    "kind": "user",
    "methods": {},
    "version": 1
  }
}